:100000000C94CA040C94E7040C94E7040C94E704E1
:100010000C94E7040C94E7040C94E7040C94E704B4
:100020000C94E7040C94E7040C9420210C94DB1F3F
:100030000C9446230C94E7040C94E7040C94E70416
:100040000C94E7040C94E7040C94E7040C94E70484
:100050000C94E7040C94F9220C94E7040C94E70444
:100060000C94E7040C94E7040C94E7040C94E70464
:100070000C94E7040C94E7040C94E7040C94E70454
:100080000C94E7040C94E7040C94E7040C94E70444
:100090000C94E7040C94E7040C94E7040C94E70434
:1000A0000C94E7040C94E7040C94E7041F12241248
:1000B0002E12221227122C122A12241598152C15F2
:1000C000F614FA143015FD1433153E1508158E1567
:1000D0000C15421510154615701514154A157A158C
:1000E0001A1550155A150115371504153A151F150F
:1000F0005515661586158815F2142815A115941640
:100100009416C316C3163F175518551855185D1782
:10011000D117E217E2175D147D18821887188C1822
:10012000911896189B18A018A518AA186B146D148E
:10013000B118B318CA15CA15CA15CA15CA15CA15F1
:10014000692D902D452F902D452FDC2DFF2D452F0E
:10015000002F102F00F5F500F5F500F5F500F5F589
:1001600000F5F500F5F500F5F500F5F500F5F500FD
:10017000F5F500F5F500F5F500F5F500F5F500F5F8
:10018000F500F5F500F5F500F5F500F5F500F5F5E8
:1001900000F5F500F5F500F5F500F5F500F5F500CD
:1001A000F5F500F5F500F5F500F5F500F5F500F5C8
:1001B000F500F5F500F5F500F5F500F5F500F5F5B8
:1001C00000F5F500F5F500F5F500F5F500F5F5009D
:1001D000F5F500F5F500F5F500F5F500F5F500F598
:1001E000F500F5F598FFFF98FFFF98FFFF98FFFFD8
:1001F00098FFFF98FFFF98FFFF98FFFF98FFFF9879
:10020000FFFF98FFFF98FFFF98FFFF98FFFF98FF01
:10021000FF98FFFF98FFFF98FFFF98FFFF98FFFFF1
:1002200098FFFF98FFFF98FFFF98FFFF98FFFF9848
:10023000FFFF98FFFF98FFFF98FFFF98FFFF98FFD1
:10024000FF98FFFF98FFFF98FFFF98FFFF98FFFFC1
:1002500098FFFF98FFFF98FFFF98FFFF98FFFF9818
:10026000FFFF98FFFF98FFFF98FFFF98FFFF98FFA1
:10027000FF98FFFF5ADACC5ADACC5ADACC5ADACCE9
:100280005ADACC5ADACC5ADACC5ADACC5ADACC5A14
:10029000DACC5ADACC5ADACC5ADACC5ADACC5ADA84
:1002A000CC5ADACC5ADACC5ADACC5ADACC5ADACC82
:1002B0005ADACC5ADACC5ADACC5ADACC5ADACC5AE4
:1002C000DACC5ADACC5ADACC5ADACC5ADACC5ADA54
:1002D000CC5ADACC5ADACC5ADACC5ADACC5ADACC52
:1002E0005ADACC5ADACC5ADACC5ADACC5ADACC5AB4
:1002F000DACC5ADACC5ADACC5ADACC5ADACC5ADA24
:10030000CC5ADACC3FFFFF3FFFFF3FFFFF3FFFFF2D
:100310003FFFFF3FFFFF3FFFFF3FFFFF3FFFFF3F6D
:10032000FFFF3FFFFF3FFFFF3FFFFF3FFFFF3FFF9D
:10033000FF3FFFFF3FFFFF3FFFFF3FFFFF3FFFFF8D
:100340003FFFFF3FFFFF3FFFFF3FFFFF3FFFFF3F3D
:10035000FFFF3FFFFF3FFFFF3FFFFF3FFFFF3FFF6D
:10036000FF3FFFFF3FFFFF3FFFFF3FFFFF3FFFFF5D
:100370003FFFFF3FFFFF3FFFFF3FFFFF3FFFFF3F0D
:10038000FFFF3FFFFF3FFFFF3FFFFF3FFFFF3FFF3D
:10039000FF3FFFFF0020103000504060003121413E
:1003A00000615171001202220042325200726282D8
:1003B00000130323005343630014042400645474A3
:1003C000001505250045355500756585001606267E
:1003D00000463656001707270047375700281838B9
:1003E000005848680039294900695979001A0A2AD1
:1003F000004A3A5A01201030015040600131214139
:100400000161517101120222014232520172628273
:10041000011303230153436301140424016454743E
:100420000115052501453555017565850116062619
:100430000146365601170727014737570128183854
:10044000015848680139294901695979011A0A2A6C
:10045000014A3A5A29002B000100E100E0000000A7
:100460001E02005704240457010001001F02015717
:1004700016281B0001002A23200208430722060039
:1004800050002C2721020257092119004F000100BA
:10049000220203570A2505000000010001000100A7
:1004A0000000010000000100010001000000010047
:1004B00000000100230205570B2511000000010078
:1004C000240206570D3110005200010025020C4293
:1004D0000E32360051002827260207570F38370002
:1004E00001004C2327020857333438000100010073
:1004F00029002B000100E5000100000001000100BF
:1005000001000100E00000001E00140004001D00B6
:10051000010001001F001A0016000100E3002A007C
:100520002000080007000100E2002C002100150057
:100530000900010001000100220017000A0001006B
:1005400000000100010001000000010000000100A6
:1005500001000100000001000000010023001C0058
:100560000B00010000000100240009570D000100EC
:100570000100010025000C000E000100E60028002B
:10058000260012000F000100E7004C0027001300B6
:1005900033000100010001002D002F003400010094
:1005A000E40000002900010001000100010000003A
:1005B0003A00250020000100010001003B0030004E
:1005C00021000100010001003C002114220022143E
:1005D000010001003D002E142D002D14010001002A
:1005E0003E00320024141F1400000100010001002D
:1005F00000000100000001000100010000000100F6
:1006000000000100010001000100010000000100E4
:1006100001000100010001000100010001000100D2
:1006200001000100010001000100010001000100C2
:1006300001000100010001000100010001000100B2
:1006400001000100010001000100000001000100A3
:100650000100010001000000010001000100010093
:100660000100010001000100010001000100010082
:100670000100010001000100010001000100010072
:100680000100010001000100010001000100010062
:100690000000010001000100000001000000010055
:1006A0000100010000000100000001003F003402D1
:1006B000251464000000010040001E0020146402A4
:1006C00001000100410023142E0050000100010030
:1006D0004200271452005100010001004300230092
:1006E0002E024F00010001004400450001000100FE
:1006F0000100000005010980A101850319012AB745
:1007000000150126B700950175108100C0050C0980
:1007100001A101850419012AA002150126A0029554
:100720000175108100C005010906A10185060507B4
:1007300019E029E7150025019508750181020507D3
:10074000190029EF1500250195F0750181020508B2
:10075000190129059505750191029501750391010E
:10076000C00660FF0961A1010962150026FF00951E
:1007700020750881020963150026FF009520750881
:100780009102C005010906A101050719E029E71535
:100790000025019508750181029501750881010503
:1007A00007190029FF150026FF009506750881002E
:1007B0000508190129051500250195057501910206
:1007C000950175039101C009025B00030100A0FAC5
:1007D00009040000010301010009211101000122A7
:1007E0004400070581030800010904010002030019
:1007F00000000921110100012222000705820320C7
:1008000000010705030320000109040200010300A1
:100810000000092111010001226D00070584032059
:100820000001120100020000000897327649000121
:100830000102030118034A003500650076005A00E2
:100840002F00670057004B004D0071000000160399
:100850004500720067006F0064006F0078002000A0
:1008600045005A00000028035A00530041002000B0
:1008700054006500630068006E006F006C006F003C
:100880006700790020004C006100620073000000E6
:100890000403090400010101010101010101020237
:1008A000020202020202020303030303030303041E
:1008B00004040404040405050505050606060606E9
:1008C000070707070708080808090909090A0A0AA3
:1008D0000B0B0B0C0C0C0D0D0D0E0E0E0F0F0F1045
:1008E00010111111121213131414151516161717CF
:1008F000181819191A1A1B1B1C1D1D1E1E1F20203B
:10090000212222232424252626272829292A2B2C84
:100910002D2D2E2F30313232333435363738393AA7
:100920003B3C3D3E3F404142434445464748494A9F
:100930004C4D4E4F50515354555658595A5B5D5E6D
:100940005F616264656668696B6C6D6F7072737508
:1009500077787A7B7D7E8082838587888A8C8E8F6C
:1009600091939596989A9C9EA0A2A3A5A7A9ABAD9A
:10097000AFB1B3B5B7BABCBEC0C2C4C6C9CBCDCF88
:10098000D1D4D6D8DBDDDFE2E4E7E9EBEEF0F3F536
:10099000F8FAFDFF11241FBECFEFDAE0DEBFCDBFB6
:1009A00013E0A0E0B1E0EEECF8E702C005900D9294
:1009B000A032B107D9F727E0A0E2B3E001C01D9251
:1009C000AE34B207E1F70E94DA180C94653C0C943F
:1009D0000000A3E0B0E0EFEEF4E00C944239782E92
:1009E0008091B80187110DC02091F206237030E08C
:1009F0004091B70150E081E02417350719F480E0F9
:100A000001C081E081708093B3018091F7069091DD
:100A1000B201981739F08093B20140E060E080E0C5
:100A20000E942A32F7E17F129DC08091B1010E949D
:100A30007E34192F9091B301911121C06091F60677
:100A400020E1620F08F46FEF8091C4069091C50613
:100A50000E94E4326AE070E00E942E39892B39F559
:100A60000E947532E0E38E9F900111246091B201E3
:100A7000832F932F990F990B0E94433418C0282F6E
:100A800030E03B832A83E12EF12C8A819B818E15F5
:100A90009F056CF46091B2018A819B810E9443346E
:100AA0004A815B814F5F5F4F5B834A83EECF91E06A
:100AB000998331C0871508F49FC398E1791250C318
:100AC0008091B1010E947E34192F9091B301911150
:100AD0002EC36091F60620E1620F08F46FEF80915B
:100AE000C4069091C5060E94E43265E070E00E9461
:100AF0002E39892B71F40E947532A0E38A9F9001F0
:100B000011246091B201832F932F990F990B0E94AA
:100B10001F3451E05983103380F00EC0471508F49C
:100B20001EC17110DFC08091B301882329F040E01D
:100B300060E080E00E942A3219828091B1018F5FCB
:100B40008093B101E981E111D5C682E08093B401BF
:100B50008091B3018111CEC67110CCC683E0809321
:100B6000B401C8C6F71508F4CFC12BE072120CC04F
:100B700088EB91E305C02AE07212EBC084ED91E3AB
:100B80000E94BD2B8983D9CF271508F473C135E0A6
:100B9000731248C08091B1010E947E349A83898388
:100BA0000091F3061091F406F090F5066091F606B8
:100BB0006695669566958091C4069091C5060E94DB
:100BC000E4320E943032805887FD8195880F382F9B
:100BD0004F2D349F312D1124832FB8010E940133F2
:100BE000162F072FF82E9A81A981A917A8F45981E9
:100BF000E52FF0E0DF01A851BD4F8C919091B2013B
:100C0000982331F02F2D412F602FCF010E942D32DC
:100C100089818F5F8983E7CFB1E0B983903308F48E
:100C20008CCF8ACF371508F407C142E0741276CF13
:100C30008091B1010E947E349A8389830091F406E9
:100C40001091F506F090F3066F2D702F812F0E9402
:100C50000133E62ED72EC82E6091F6066F0D702F49
:100C6000812F0E940133162F072FF82EEA81F98178
:100C7000FE1790F5A9818A2F90E0FC01E851FD4F05
:100C800030812091B201232359F030FF04C02F2D71
:100C9000412F602F03C02C2D4E2D6D2D0E942D3223
:100CA000B981BF5FB983E2CF94E0791252C08091DD
:100CB000B1010E947E349A8389830091F406D0901A
:100CC000F5062091F60610E4129F112D1124EA81F9
:100CD000F981FE1708F486C021E02983E03308F487
:100CE0002CCF2ACF51E0751234C08091B1010E94FF
:100CF0007E349A8389836091F3067091F406809123
:100D0000F5060E940133162F072FF82E4A815981CC
:100D10005417A8F42981E22FF0E0DF01A851BD4F5C
:100D20008C919091B201982331F02F2D412F602F9B
:100D3000CF010E942D3239813F5F3983E7CF81E0B7
:100D40008983403308F4F9CEF7CEECE17E1609F43E
:100D500059C28091B1018F5F8093B101F6CE83E0DB
:100D60007812A2CF8091B1010E947E349A83898348
:100D70000091F406D090F5062091F60610E4129F3B
:100D8000112D11245A818981851730F53981E32E7F
:100D9000F12CF701E851FD4F90818091B201892338
:100DA000B9F0F701EE0FFF1FE757FD4F80818295E5
:100DB0008F706091F306819F600D1124702F8D2D2F
:100DC0000E940133462F282F672FC7010E942D3222
:100DD00049814F5F4983D6CF91E09983503308F41E
:100DE000ACCEAACEA981EA2EF12CF701E851FD4F35
:100DF00090818091B2018923D9F0F701EE0FFF1F96
:100E0000E857FD4F6081169FB0011124B5E075953C
:100E10006795BA95E1F78091F306680F702F8D2DD5
:100E20000E940133462F282F672FC7010E942D32C1
:100E3000B981BF5FB9834BCFA8E07A1203C08DE0C0
:100E400092E307C0A71540F4F9E07F1294CE8FEE2D
:100E500091E30E94242C96CEB6E07B1203C085E37A
:100E600091E305C0E7E07E1274CF89E091E30E9430
:100E7000292B88CE31E1731203C08BEB92E3E9CFCB
:100E8000371500F14EE0741203C085EF90E3EFCF09
:100E9000471560F05CE0751203C087E091E3E7CF8F
:100EA0008DE0781256CF8EEF90E3E1CF9FE079127C
:100EB00003C08AED90E3DBCFA0E17A124ACF8BEC3E
:100EC00090E35ECEB4E17B1203C08DE990E307C0EE
:100ED000B71540F425E1721211C08BE690E30E9431
:100EE0006D2B50CEE2E17E1203C087EA91E3B1CFD1
:100EF000F3E17F122ECF83E991E342CE36E1731204
:100F000028CF8DE290E3EBCF43E274121BC08091B7
:100F1000C80621E0382F321B08F430E0832F65EF3C
:100F20007FE20DC0B5E27B1214CF8091C80621E0AC
:100F3000482F421B08F440E0842F6DEB7FE20E94B3
:100F4000282A20CE471508F421C45DE17512E6C0B9
:100F50004091E6035091E7036091E8037091E90343
:100F60008091C4069091C506A091C606B091C706AF
:100F700084179507A607B70708F4DECD8091B30163
:100F8000811107C08091B1010E947E34092F8983AD
:100F900057C040E060E080E00E942A3200E010E0AC
:100FA0000E947532D801AA0FBB1FAA0FBB1FBB83BB
:100FB000AA8381FF08C0AA5DBC4FFD011082118287
:100FC000128213821DC00E947532F82E0E94753263
:100FD000F0E88F9FC00111247FE7790F2A813B81C0
:100FE0002A5D3C4F3B832A836F2D8091F5060E943A
:100FF0000133AA81BB816D937D938D939C9313974D
:101000000F5F1F4F0033110559F6BCCFB9818B2FED
:1010100090E0FC01E851FD4F30812091B201232383
:1010200061F0FC01EE0FFF1FEE0FFF1FEA5DFC4FAA
:101030002281408161810E942D32E981EF5FE98345
:10104000F981F01718F321E02983003308F01982A1
:10105000003308F472CD20E010E001501109822F16
:1010600090E080179107CCF4DC01AA0FBB1FAA0FF8
:10107000BB1FAA5DBC4F880F991F880F991FFC01E9
:10108000E65DFC4F40815181628173814D935D9398
:101090006D937C9313972F5FE2CF0E947532000F00
:1010A000111F000F111F81FF08C0F801EA5DFC4FFE
:1010B000108211821282138218C00E9475328A83B4
:1010C0000E94753230E8839FC00111247FE7790FB9
:1010D0000A5D1C4F6A818091F5060E940133D80198
:1010E0006D937D938D939C9313970E94EE320091A4
:1010F000C4061091C5062091C6063091C706DC01D2
:10110000CB01800F911FA21FB31F8093E603909322
:10111000E703A093E803B093E9030FCD571508F454
:10112000E7C08AE17812C6CC81E592E3A0CEE82F31
:10113000F0E0FB83EA83E12EF12C4A815B814E15BE
:101140005F050CF0E6CC6091B2018A819B810E9420
:101150001F342A813B812F5F3F4F3B832A83EDCF92
:10116000A9E17A12F6CD8091B1010E947E349A8372
:1011700089830091F4061091F506F090F3066091D2
:10118000F6066695669566958091C4069091C506AB
:101190000E94E4320E943032805887FD8195880F8A
:1011A000682F2CE0629F612D11246F0D702F812F0D
:1011B0000E940133162F072FF82EAA81B981BA1782
:1011C000A8F48981E82FF0E0DF01A851BD4F8C9190
:1011D0009091B201982331F02F2D412F602FCF0134
:1011E0000E942D3299819F5F9983E7CFE1E0E983E7
:1011F000A03308F4A2CCA0CCBBE17B12A6CD8CE13D
:1012000090E335CE8091B1010E947E34192F409138
:10121000C4065091C5066091C6067091C7068091BC
:10122000220390912303A0912403B09125038417F6
:101230009507A607B70708F058C00E947532F0E37B
:101240008F9FC0011124292F332727FD3A953B8317
:101250002A83F901E851FD4F90818091B2018923E1
:1012600009F443C00E94753281FD0EC00E947532A0
:10127000082F0E94753230E8839FC00111247FE758
:10128000790F8091F50603C080E070E000E0602FE8
:101290000E940133462F282F672F8A819B810E944D
:1012A0002D322091F60630E1230F08F42FEF60E194
:1012B000822F90E00E94E432BC0184EF91E00E9412
:1012C0002E398091C4069091C506A091C606B091B2
:1012D000C706860F971FA11DB11D8093220390930F
:1012E0002303A0932403B093250341E0498313CC47
:1012F000F0E27F12C6C06090F50683E0689EA00110
:10130000112456954795569547955B834A839A8154
:101310009983862C912C8FEF90E0B4010E94353C8C
:10132000362E8091B301882371F040E060E080E0C8
:101330000E942A3284E5EDE1F4E0DF011D928A95F6
:10134000E9F710921C0480911B048F5F80931B04AB
:101350003DE1E32E34E0F32E44E3A42E42E0B42E2C
:1013600053E2452E54E0552EEA81FB818E1A9F0AE6
:1013700087016501212C21100CC080911C04811172
:1013800008C00E94C539853595401CF4D7016C9280
:101390000CC0F8018081882341F0861530F49091CB
:1013A0001B04391202C081508083D601EC91EF3FBB
:1013B00029F1D8012C91F0E0B981B21790F430E016
:1013C0004A815B81241B350B249FC001259F900D12
:1013D000349F900D1124B4010E942E39262F462DE2
:1013E0000AC0629EC00111246A817B810E942E394D
:1013F000462F20E060E0CF010E942D32239456E07A
:10140000C50ED11C0A5F1F4F8EE02812B4CF9FEF8C
:10141000E91AF90AAFEFAA1ABA0A4E145F0409F0E2
:10142000A7CF80911B04381202C010921B04809138
:101430001C048F5F8D3118F480931C047DCB1092B7
:101440001C0425E634E08DE041E754E09FEF960D63
:10145000ABE6B4E0F9018D3021F46C91661201C065
:101460009C936081661510F0908366823196119688
:101470004A175B0781F78150265031098111E8CF67
:101480005BCBF71508F474C12EE17212CAC08091CB
:10149000B301882329F040E060E080E00E942A3216
:1014A0008091B1010E947E34392E4091C406509142
:1014B000C5066091C6067091C7068091140490918C
:1014C0001504A0911604B091170484179507A60778
:1014D000B70708F09FC06091F3067091F406809101
:1014E000F5060E940133662E572E482E0AEE13E0B1
:1014F000E4E3F2E0FB83EA83B8E88B2EB2E09B2EB4
:10150000AA80BB8065017801212CD7018C91F6015E
:10151000882371F08081242D462D652D90E00E9456
:101520002D32D50115968C91242D462D652D0DC09B
:10153000808120E040E060E090E00E942D32D50103
:1015400015968C9120E040E060E090E00E942D3202
:10155000F7018181D7018D937D012394BFEFCB1AD1
:10156000DB0AE1E0AE1AB108F2E02F12CECFD801CB
:1015700012968C91EA81FB81882379F08281242D57
:10158000462D652D90E00E942D32AA81BB811396D5
:101590008C91242D462D652D0EC0828120E040E0E7
:1015A00060E090E00E942D32AA81BB8113968C915D
:1015B00020E040E060E090E00E942D320E94753211
:1015C000837091E009F090E0F80192830D5F1F4F66
:1015D0002A813B812A5F3F4F3B832A8382169306F1
:1015E00009F08ECF0E94EE320091C4061091C5061C
:1015F0002091C6063091C706DC01CB01800F911FF8
:10160000A21FB31F8093140490931504A093160493
:10161000B093170431E039834FE2431508F08DCAC7
:101620008BCA3FE1731295CB8091B1010E947E3449
:10163000282E492E8091B301882361F040E060E0BC
:1016400080E00E942A3284E5EDE1F4E0DF011D92A2
:101650008A95E9F78091B101811115C08091190433
:1016600090911A040E941F2321E08931910508F40A
:1016700020E020931804499730F00E943A23909379
:101680001A048093190474E3C72E72E0D72EEDE19B
:10169000EE2EE4E0FE2EFBE68F2EF4E09F2E512C82
:1016A000AAEA3A2E00E010E0F601E00FF11FB08147
:1016B000B983B21508F442C0B41508F03FC0539482
:1016C000EB2FF0E0FB83EA83E851FD4F908180919E
:1016D000B201892309F432C05701A00EB11ED50111
:1016E0006C90362D25E5321B08F430E07091F4063D
:1016F000232D462D240F08F42FEF4091F50652E0DC
:10170000259F200D11242E5F249F212D1124632D50
:10171000631B822F0E940133462F282F672F8A8157
:101720009B810E942D3280911804882339F0262D48
:1017300031E0231B08F420E0D5012C930F5F1F4FED
:101740000630110509F0B0CF8E149F0451F0B6E0B9
:10175000CB0ED11CE6E0EE0EF11CF4E0F51508F01E
:10176000A1CF21E029833FE2341508F0E6C9E4C99E
:1017700041E2741203C085E190E305C052E27512A4
:10178000E8CA8EE090E30E94BF2AFCC989E2781281
:101790000BC08091C80621E0382F321B08F430E0DE
:1017A000832F63E77FE2CBCB871518F196E279129E
:1017B00003C06DEB7FE207C0971538F0A4E27A1200
:1017C000B1CB65EF7FE280E0BACBE7E27E120BC0DF
:1017D0008091C80621E0582F521B08F450E0852F55
:1017E0006BE87FE2ACCBF8E27F12B3CA6BE87FE232
:1017F000EACF2CE2721203C06DE57FE2E4CF271539
:10180000A0F03AE2731203C063E77FE2DCCF4BE261
:1018100074129FCA8091C80621E0482F421B08F429
:1018200040E0842F6DE57FE28ACB5DE275122EC029
:101830008091B1010E947E349A8389836091F5067C
:1018400070E080E090E00E943A3B20E030E04FE71B
:1018500053E40E94993A6B017C019A81A981A917EE
:1018600008F0DAC920E030E0A901C701B6010E9402
:10187000C83B0E940B3B262F462F5981852F90E0B5
:101880000E942D3289818F5F8983E7CF8FEF781295
:1018900060CA8091C4069091C506A091C606B09119
:1018A000C70688279C70AA27BB272AE0B695A7956C
:1018B000979587952A95D1F782309105A105B105B5
:1018C00071F083309105A105B10569F040E0019701
:1018D000A105B10511F060E008C064E102C044E177
:1018E00060E080E003C044E164E184E10E942A32C8
:1018F00082E035C92396E2E10C945E39982F9295E7
:101900009F7019F0892F24E001C020E0982F969550
:10191000969511F02E5F892F982F969509F02F5FDD
:10192000822F08959C013A9521153F4130F5BC0165
:1019300066277270AC01442754709C0122273870CE
:1019400094FF0FC090FF02C080E101C080E0672BD0
:1019500009F08062452B09F08064232B79F08068C0
:101960000895892F8170672B09F08260452B09F05B
:101970008460232B19F08860089580E00895FC01AD
:101980008281813039F4958192FD12C090FF10C0A0
:1019900082E00895823039F4858182FD06C080FDA1
:1019A00006C083E0089586E0089585E0089584E008
:1019B000089590E0FC01E053FE4F208121111AC0F0
:1019C000F894FC01EE53FE4F8081E82FE295EF7012
:1019D000F0E031A1282F2F7081E090E001C0880F46
:1019E0002A95EAF7982F9095932391A392A1892B9A
:1019F00082A378940895CF93DF93EC010E94E2369E
:101A0000CE01805E9109089710F0209731F4CE0145
:101A10000E94920C0E94D13605C0CE010E94920C09
:101A20000E94C036DF91CF9108958FE39CE9019722
:101A3000F1F700C0000080918604833021F08530EA
:101A400011F0813021F488E190E00E94FB0C1092AB
:101A5000860408958FE39CE90197F1F700C0000028
:101A600080918404833061F018F4813049F00CC017
:101A7000843019F0853021F007C08DE394E002C076
:101A800083E190E00E94FB0C1092840408958FE3A0
:101A90009CE90197F1F700C0000080918204833037
:101AA00061F018F4813049F00CC0843019F08530B1
:101AB00021F007C085E490E002C082E190E00E943E
:101AC000FB0C1092820408958FE39CE90197F1F7D3
:101AD00000C0000080918004833021F0853011F037
:101AE000813021F488E190E00E94FB0C1092800488
:101AF00008958FE39CE90197F1F700C00000809101
:101B00007E04833061F018F4813049F00CC08430D9
:101B100019F0853021F007C084E490E002C08CE128
:101B200090E00E94FB0C10927E0408958FE39CE9E4
:101B30000197F1F700C0000080917C04833061F0D0
:101B400018F4813049F00CC0843019F0853021F050
:101B500007C08BE391E002C08DE190E00E94FB0C96
:101B600010927C0408958FE39CE90197F1F700C07F
:101B7000000080917A04833061F018F4813049F0DC
:101B80000CC0843019F0853021F007C082E492E067
:101B900002C087E190E00E94FB0C10927A04089545
:101BA0008FE39CE90197F1F700C000008091780471
:101BB000833061F018F4813049F00CC0843019F0A2
:101BC000853021F007C083E492E002C085E190E017
:101BD0000E94FB0C1092780408958FE39CE9019712
:101BE000F1F700C0000080917604833061F018F4B2
:101BF000813049F00CC0843019F0853021F007C0E5
:101C000089E290E002C08AE190E00E94FB0C109211
:101C1000760408958FE39CE90197F1F700C0000076
:101C200080917404833061F018F4813049F00CC065
:101C3000843019F0853021F007C08BE294E002C0B7
:101C400084E190E00E94FB0C109274040895CF93FD
:101C5000DF93EC01805E9109089710F0209731F432
:101C6000CE010E94920C0E94D83605C0CE010E947F
:101C7000920C0E94C7368C2F0E940C37DF91CF91B7
:101C800008950F931F93CF93DF938C01C99719F099
:101C9000C0E0D0E002C0C0E5D0E0C8010E94270E3D
:101CA000209741F08FE99FE00197F1F700C0000015
:101CB0002197F6CFC8010E94FB0CDF91CF911F91B5
:101CC0000F910895CF93DF93EC018A81833061F403
:101CD00083E190E00E94410E83E190E00E94410E7A
:101CE00083E190E00E94410E8A81843020F083E1FC
:101CF00090E00E94410EDF91CF910895CF93DF9342
:101D0000EC018A81833061F482E190E00E94410E0F
:101D100082E190E00E94410E82E190E00E94410E3B
:101D20008A81843020F082E190E00E94410EDF91B0
:101D3000CF910895CF93DF93EC018A81833061F4D2
:101D400088E190E00E94410E88E190E00E94410EFF
:101D500088E190E00E94410E8A81843020F088E181
:101D600090E00E94410EDF91CF9108950E949A0E5B
:101D70000895CF93DF93EC018A81833061F48CE185
:101D800090E00E94410E8CE190E00E94410E8CE1B7
:101D900090E00E94410E8A81843020F08CE190E036
:101DA0000E94410EDF91CF910895CF93DF93EC0114
:101DB0008A81833061F48DE190E00E94410E8DE1D3
:101DC00090E00E94410E8DE190E00E94410E8A81D8
:101DD000843020F08DE190E00E94410EDF91CF91A0
:101DE0000895CF93DF93EC018A81833061F487E11A
:101DF00090E00E94410E87E190E00E94410E87E151
:101E000090E00E94410E8A81843020F087E190E0CA
:101E10000E94410EDF91CF910895CF93DF93EC01A3
:101E20008A81833061F485E190E00E94410E85E172
:101E300090E00E94410E85E190E00E94410E8A816F
:101E4000843020F085E190E00E94410EDF91CF9137
:101E50000895CF93DF93EC018A81833061F48AE1A6
:101E600090E00E94410E8AE190E00E94410E8AE1DA
:101E700090E00E94410E8A81843020F08AE190E057
:101E80000E94410EDF91CF910895CF93DF93EC0133
:101E90008A81833061F484E190E00E94410E84E104
:101EA00090E00E94410E84E190E00E94410E8A8100
:101EB000843020F084E190E00E94410EDF91CF91C8
:101EC00008950E94BF0C80938404833049F018F475
:101ED000813091F00895843041F0853049F00895C3
:101EE00083E190E00E94270E07C08DE394E006C0D6
:101EF00083E190E00E94410E83E190E00E94270E72
:101F000008950E94BF0C80938204833049F018F436
:101F1000813091F00895843041F0853049F0089582
:101F200082E190E00E94270E07C085E490E006C0A1
:101F300082E190E00E94410E82E190E00E94270E33
:101F400008950E94BF0C80937E04833049F018F4FA
:101F5000813091F00895843041F0853049F0089542
:101F60008CE190E00E94270E07C084E490E006C058
:101F70008CE190E00E94410E8CE190E00E94270EDF
:101F800008950E94BF0C80937C04833049F018F4BC
:101F9000813091F00895843041F0853049F0089502
:101FA0008DE190E00E94270E07C08BE391E006C010
:101FB0008DE190E00E94410E8DE190E00E94270E9D
:101FC00008950E94BF0C80937A04833049F018F47E
:101FD000813091F00895843041F0853049F00895C2
:101FE00087E190E00E94270E07C082E492E006C0DD
:101FF00087E190E00E94410E87E190E00E94270E69
:1020000008950E94BF0C80937804833049F018F43F
:10201000813091F00895843041F0853049F0089581
:1020200085E190E00E94270E07C083E492E006C09D
:1020300085E190E00E94410E85E190E00E94270E2C
:1020400008950E94BF0C80937604833049F018F401
:10205000813091F00895843041F0853049F0089541
:102060008AE190E00E94270E07C089E290E006C056
:102070008AE190E00E94410E8AE190E00E94270EE2
:1020800008950E94BF0C80937404833049F018F4C3
:10209000813091F00895843041F0853049F0089501
:1020A00084E190E00E94270E07C08BE294E006C016
:1020B00084E190E00E94410E84E190E00E94270EAE
:1020C00008950E94BF0C80938604823049F018F472
:1020D000813099F00895833039F0853051F00895BA
:1020E00081E00E945A36089588E190E00E94270E10
:1020F00004C088E190E00E94410E88E190E00E94D7
:10210000270E08950E94BF0C80938004823049F00E
:1021100018F4813099F00895833039F0853051F00A
:10212000089582E00E945A36089588E190E00E9466
:10213000270E04C088E190E00E94410E88E190E003
:102140000E94270E0895A6E0B0E0E9EAF0E10C94C1
:10215000513926E0FC01DE01119601900D922A957D
:10216000E1F7FC01258189819A81222359F06623B8
:1021700049F00E94B535182F682F89819A810E94F5
:10218000253603C00E94F135182F69817A81812F8D
:102190000E94AE252696E3E00C946D39A4E3B0E0EE
:1021A000E4EDF0E10C9451394FA758AB69AB7AAB31
:1021B0008BAB9CAB911110922B06CE01889627E039
:1021C000DC011D922A95E9F726E0FE01BF96DC01AD
:1021D00001900D922A95E1F72CA52223E1F061E010
:1021E0000E94A3108091B8048823A9F08DA58111C5
:1021F00002C087E001C086E0898388A58A8389A51B
:102200008B838EEF8C8340E250E0BE016F5F7F4F87
:1022100082E00E94552287E0FE01B896DE01919689
:1022200001900D928A95E1F7CE0181960E94D927FF
:1022300081112CC087E0FE01B196DE01119601905C
:102240000D928A95E1F76DA1662301F12091440674
:1022500030E0C90101968770992740917D0650E0D2
:102260008417950761F16D8397E0929FD001939F4A
:10227000B00D1124AB5BB94FFE01319601900D9268
:102280009A95E1F7809344060E94762717E08091A3
:102290007D06909144068917F9F0189FC00111241A
:1022A0008B5B994F0E94D9278823B1F080917D06DE
:1022B00090E001968770992780937D06E8CF0E9471
:1022C0009E361092440610927D06EDE3F6E087E01C
:1022D000DF011D928A95E9F7E496E3E00C946D39ED
:1022E000A0E0B0E0E6E7F1E10C94433920E9289F53
:1022F0007001299FF00C1124C0E0D0E000E010E054
:1023000067018FEFC81AD80A570182E0A80EB11CE6
:10231000F701EC0FFD1FEC5AFE4F6491F601EC0F34
:10232000FD1FEC5AFE4F7491F501EC0FFD1FEC5AA6
:10233000FE4F8491611107C0711105C0811103C066
:1023400020E040E03CC00E940133962E372E882EBC
:102350006091F50670E080E090E00E943A3B20E05A
:1023600030E04FE753E40E94993A2B013C01682D7D
:1023700070E080E090E00E943C3BA30192010E944B
:10238000C83B0E940B3B862E692D70E080E090E0F8
:102390000E943C3BA30192010E94C83B0E940B3B60
:1023A000962E632D70E080E090E00E943C3BA301FC
:1023B00092010E94C83B0E940B3B282D492DC80169
:1023C0000E942D320F5F1F4F2396C039D10509F0AF
:1023D0009FCFCDB7DEB7E1E10C945F3927982F98F6
:1023E0002F98089526982E982E98089525982D9820
:1023F0002D980895279A2F9A0895269A2E9A08952F
:10240000259A2D9A0895A0E2B0E0E9E0F2E10C945B
:102410005039082F0E947E0C182F5E980E94F611EA
:102420000E94F2110E94EE11812F90E0FC01319781
:10243000E730F105A8F4EA5AFF4F0C94493C0E949A
:1024400000120EC00E9400120E94FD1109C00E94DD
:10245000001204C00E9400120E94FD110E94FA1195
:102460008091B8048823D9F0809172041817B9F0CC
:10247000109372048FE39CE90197F1F700C000000C
:1024800085E08983809172048A838EEF8B8340E29A
:1024900050E0BE016F5F7F4F82E00E945522802F87
:1024A000A096E4E00C946C39A0E2B0E0EAE5F2E139
:1024B0000C9452399FEF99838A8340E250E0BE0129
:1024C0006F5F7F4F82E00E945522A096E2E00C945D
:1024D0006E39A1E0B0E0EFE6F2E10C9450398730BC
:1024E000F8F420910E0130910F01232BD1F521E05A
:1024F00030E0A90102C0440F551F8A95E2F7CA01D6
:10250000809589830AE010E0AE014F5F5F4F62E182
:1025100080E40E94473890930F0180930E0121C000
:1025200090E0FC01E053FE4F208121111AC0F89485
:10253000FC01EE53FE4F8081E82FE295EF70F0E052
:1025400031A1282F2F7081E090E001C0880F2A95DB
:10255000EAF7932F982B91A392A18095892382A3C8
:1025600078942196E4E00C946C390F931F93CF93E9
:1025700007ED11E0C7E0F80181918F01811103C0DF
:102580008C2F0E94D90CCF5FCE30A9F7CF911F912D
:102590000F910895A1E0B0E0E0EDF2E10C94503924
:1025A000082F8730C8F480910E0190910F01892B7C
:1025B000E9F519820AE010E021E030E0AE014F5F5A
:1025C0005F4F63E180E40E94953890930F01809300
:1025D0000E01898180952BC00E946912ACEBB1E09D
:1025E00020E030E010E051E04D91E42FE295EF70F3
:1025F000F0E080A190E04F7002C0959587954A95D4
:10260000E2F780FD07C0852F022E01C0880F0A94D3
:10261000EAF701C080E0182B2F5F3F4F26303105CD
:1026200019F7802F0E94D90C812F01C080E02196DC
:10263000E4E00C946C39CF93DF93ACEBB1E042EC67
:1026400051E061E070E0F8948D91E82FE295EF7031
:10265000F0E021A18F70EB0102C0CC0FDD1F8A9545
:10266000E2F7CE019C2F9095922391A392A1892B02
:1026700082A378944A175B0731F7DF91CF910895D1
:10268000A2E0B0E0E6E4F3E10C94503980E290E09F
:1026900090930F0180930E018091710481110EC0FF
:1026A0000E94CA3781E0809371042FEF83ED90E39D
:1026B000215080409040E1F700C0000019828FE374
:1026C0008A830AE010E022E030E0AE014F5F5F4F06
:1026D00060E080E40E94473890930F0180930E01E0
:1026E000892B69F422E030E0AE014F5F5F4F6CE070
:1026F00080E40E94473890930F0180930E018091EF
:102700000E012296E4E00C946C39A0E0B0E0EBE816
:10271000F3E10C944B39FC012481222309F445C5D3
:102720008C0161E00E94A310EC01F80185818823EF
:1027300099F180912D0690912E06009709F41FC5FE
:10274000C817D90709F41BC5992754E0880F991FAA
:102750005A95E1F7FC01EB5EFE4F20812460208357
:10276000805F9E4FFC01D183C0830E944A24109257
:102770002B0661E0C8010E94A310EC018115FEE761
:102780009F0771F081302EE7920709F449C080322B
:10279000984709F088C068C0C115FEE7DF07E1F57A
:1027A000F8018581882309F4FAC49091280781E013
:1027B000890F8770987F853020F4892B80932807B4
:1027C00002C090932807809128078770FFEF8F9FA2
:1027D000C001112495958795959587959927909394
:1027E00089008093880090938B0080938A00909357
:1027F0008D0080938C0040912807509129076091AB
:102800002A0770912B078FE090E00E94243A809174
:1028100027070E940312C3C4C1302EE7D207F1F587
:10282000F8018581882309F4BDC48091280783FBC2
:10283000222720F991E0922790FB83F980932807C3
:10284000992329F040E060E080E00E942A32409124
:1028500028075091290760912A0770912B078FE074
:1028600090E00E94243A9EC4F8018581882309F4EF
:1028700091C19091F7068091F1069F3F59F4109213
:10288000F70681608093F10640E060E080E00E94FE
:102890002A3280C19FEF9093F70619C0C03248E7F3
:1028A000D40709F477C1F8012581C230FEE7DF07BC
:1028B000C1F4222309F46EC10EC09091F20681E0AA
:1028C00089278093F2061092B4018091F10681600D
:1028D0008093F1065FC181E001C085E00E940F2A6C
:1028E00059C1CE0197558F3F910511F008F05AC09C
:1028F0006E01DD24C60134E0880F991F3A95E1F797
:10290000AC01405F5E4F7A01FC01EB5EFE4F6F0150
:10291000808120FB80F98083F8018581882341F143
:102920000E943A239093B6048093B504F701828104
:102930008F5F828390912B0680912C06892B838355
:1029400080917F0684834681578166857785C7019C
:102950000E942B24F601808181FF03C090E080E07B
:1029600002C09C2F8D2F90932D0680932E061AC0A7
:10297000FA014485558566857785C7010E942B2419
:10298000F601808181FF0EC0C7010E943124809131
:102990002D0690912E06C817D90721F410922E0605
:1029A00010922D06F8018581882309F458C1CE01C3
:1029B0009057839708F0DBC084E090E00E94FC39D8
:1029C0009093360680933506FE01E150F047E232DF
:1029D000F10520F4E35AFF4F0C94493C80913506F1
:1029E0008160ACC0809136068860B4C080913506A5
:1029F0008260A4C08091350620C080913506886031
:102A00009DC0809136061EC0809136068260A2C0AD
:102A100080913506806192C08091350680628EC0BB
:102A20008091350680648AC00E949E36809135066A
:102A3000806884C080913506886084607FC0809102
:102A400036068260816086C0809135068E7F76C0B2
:102A500080913606877F7EC0809135068D7F6EC05F
:102A60008091350620C080913506877F67C08091B0
:102A700036061EC0809136068D7F6CC0809135066B
:102A80008F7E5CC0809135068F7D58C08091350661
:102A90008F7B54C00E949E36809135068F774EC042
:102AA00080913506877F8B7F49C0809136068D7F68
:102AB0008E7F50C08091350682FB222720F991E05D
:102AC000922790FB82F990FB83F938C080913606FB
:102AD000982F909591708E7F892B90FB81F93AC049
:102AE0008091350686FB222720F991E0922790FB02
:102AF00086F924C00E949E368091350687FB2227E6
:102B000020F991E0922790FB87F918C061E001C09D
:102B100060E08EE090E00E94123A1EC0809135067F
:102B200084FB222720F991E0922790FB84F906C0CC
:102B300080913506982F909590FB80F9809335060B
:102B40000BC08091360683FB222720F991E0922763
:102B500090FB83F9809336066091350670913606B6
:102B600084E090E00E94303A0E949E3613C0C63145
:102B70005CE7D50709F580912C068A7A91E009F483
:102B800090E0909387048111B2C289E20E949D2354
:102B90000E94F62680917E06877009F406C3F8012C
:102BA0008581882309F401C38091360682FFFDC226
:102BB00082E00E944827F9C2C330FCE7DF0779F1C1
:102BC00090F4C1154CE7D407E1F0C130DC4709F0BF
:102BD00055C00E949E365FEF84E39CE051508040D8
:102BE0009040E1F72BC0CB358CE7D807A1F1CC356D
:102BF0009CE7D90741F1CA35DC4709F03FC081E0C5
:102C00002BC00E949E36FFEF24E34CE0F1502040A1
:102C10004040E1F700C000000E94C722BBCF6FEF29
:102C20007FEF80E090E00E94303A0E949E36EFEF06
:102C3000F4E32CE0E150F0402040E1F700C0000058
:102C40000E94BC22A7CF8091360682FB882780F99C
:102C500091E0892701C080E00E945F270FC0C63144
:102C60008CE7D80709F481C280912C068272FE019C
:102C7000E052F847E531F10508F43BC2F8018581DF
:102C8000C081D181882349F0CE010E94B535F82E4C
:102C9000682FCE010E94253604C0CE010E94F13576
:102CA000F82EBE018F2D0E94AE250E94CB25D82F75
:102CB000C92FC82EF801F580E680E2949FE0E92252
:102CC00080917E06877001F1FF20F1F08C2F807FCC
:102CD000803469F080E28D0F8830B0F08C2F807ED8
:102CE000803229F4F1E0FD1778F4EE2069F080914C
:102CF000360682FF09C082E00E94482780917E0646
:102D00008770DD24D3948111D12CBC2EB2948FE036
:102D1000B8228B2D90E08C30910508F0C6C1FC01E3
:102D2000E158FF4F0C94493C8C2F807FCF70882353
:102D300011F0C295C07FFF20B9F0CC2309F4A3C1E4
:102D400080E28D0F883010F0C11006C090912C06E3
:102D5000C92BC0932C0605C090912B06C92BC0939C
:102D60002B060E94F6268FC18D2F0E94E236CC23BF
:102D700009F49BC1D05E8C2FD83068F1CC2059F17A
:102D80000E94E8262AC08C2F807FCF70803211F0FD
:102D9000C295C07FCC2029F021E0C21609F44CC0B6
:102DA00055C08091360682FD1BC0FF2069F0CC2300
:102DB00039F090912C06C92BC0932C060E94F62660
:102DC00080E00E940C3771C180E00E94E236CC2383
:102DD00009F46BC18C2F0E94EF260E94F62665C174
:102DE000FF2081F0EE20B1F141E0E4125EC190914C
:102DF0007F068C2F8923C81709F457C1C92BC093AC
:102E00007F0653C1E11051C18C2F0E94D1368091B1
:102E10007F069C2F982329F09C2F909589238093DF
:102E20007F06209188048C2F822309F43EC1C0952F
:102E30002C232093880439C1FF2029F051E05E152E
:102E400008F433C107C0E11030C115C0FF2031F0D4
:102E5000E11019C18C2F0E94D83627C1EE2059F0FD
:102E6000D93309F01FC18FEF97EEE3E08150904016
:102E7000E040E1F715C18C2F0E94D13616C18C2F8E
:102E800086958695837019F0813061F00EC1FF2020
:102E900021F08D2F9C2F937002C080E090E00E9463
:102EA000F92309C1FF2021F08D2F9C2F937002C0C0
:102EB00080E090E00E94D423FEC08C2F8370A9F59F
:102EC000F110F7C04D2F429546954770440F440FBF
:102ED0008D2F8F7090E09C01042E01C0220F0A9468
:102EE000EAF7D4FF08C08FE090E001C0880F4A9550
:102EF000EAF7809501C080E0C695C695C370C230E0
:102F000069F088F490919704C13019F0822B8923DD
:102F100002C0922B892B0E947836CBC0822B9091D5
:102F200097048927F8CF822BF6CFFF2019F08C2F3A
:102F3000817001C08695882309F4BBC04D2F42954E
:102F400046954770440F440F8D2F8F7090E09C0181
:102F5000042E01C0220F0A94EAF7D4FF08C08FE0C4
:102F600090E001C0880F4A95EAF7809501C080E0A3
:102F7000C695C695C370C23059F078F49091270772
:102F8000C13019F0822B892309C0922B892B06C0EE
:102F9000822B90912707892701C0822B0E945A36E5
:102FA00088C0CF70FF2039F08C2F0E946C368D2F97
:102FB0000E94D8367EC08D2F0E94D1368C2F0E9461
:102FC0005F3677C08D2FF2EFCF1669F1FC1538F020
:102FD00020EFC21659F041EFC41601F150C053EF73
:102FE000C51641F194EFC916A9F049C0FF2069F058
:102FF000E1105BC0CF7181E090E001C0880FCA95FD
:10300000EAF79091270789271FC0E1E0EE1508F441
:103010004CC0F0CF8091360682FD19C0FF2029F008
:103020008C2F8F711FC0FF20D9F38C2F8F710E94BE
:103030005F363BC0FF2039F0CF7181E001C0880FBF
:10304000CA95EAF701C080E00E945A362EC0FF20E0
:1030500061F08C2F8F71F8E08F9F90011124236015
:1030600020937E060E946C3620C081E00E94482793
:1030700021E02E15D0F482E00E94482716C0FF20E0
:1030800021F0EE2069F28D2F9CCEEE2071F2893373
:1030900049F44FEF57EE83E0415050408040E1F754
:1030A00000C000008D2F0E94E23688EF8B0D843027
:1030B00010F40E941E24DD20A9F080917E0680FD80
:1030C00011C0F80115828695869586950E946C360A
:1030D000C8010E94851380917E0686958695869507
:1030E0000E945F3660E0C8010E94A3105EC085E3C5
:1030F0004DCDE557FF4F0C94493C40EF53E36AEF49
:1031000073E32CC04AEF53E360EF73E327C04CED49
:1031100053E366EE73E322C046EE53E36CED73E3D4
:103120001DC042EC53E36FEC73E318C04FEC53E364
:1031300062EC73E313C048EA53E365EB73E30EC03C
:1031400045EB53E368EA73E309C04CE853E36AE9EB
:1031500073E304C04AE953E36CE873E30E94742408
:1031600019CD8DE0BBCB82E1B9CB80918704811171
:1031700004C089E20E946F230BCD85E3FBCFC1150C
:103180009EE7D90709F411CBC130EEE7DE0709F459
:1031900047CBC032F8E7DF0709F085CB6ACBC0E048
:1031A000DEE700CCC1E0DEE7FDCBCDB7DEB7E9E07E
:1031B0000C946739A3E5B0E0E0EEF8E10C944239F5
:1031C00085B7806885BF85B7806885BF84B7877FEE
:1031D00084BF0FB6F894A8958091600088618093B1
:1031E0006000109260000FBE90E080E80FB6F89487
:1031F00080936100909361000FBE8BE794E29093FF
:103200002103809320030E941F200E94C5208091EB
:10321000E20084608093E20078948091BA0688236B
:10322000A1F01091E9001F709091EC00892F81703E
:1032300090FD80E8182B1092E9008091E80083FD52
:103240000E94862C1F701093E90082E084BD93E0F9
:1032500095BD9AEF97BD80936E000E94401390E059
:1032600090930F0180930E010E94B5120E941B13D0
:10327000E9E8F4E0A8E9B4E011921D9224E0E7390E
:10328000F207D1F780E090E00E94FC39853E9E4F26
:1032900009F46EC065EE7EEF80E090E00E94303A67
:1032A00060E082E090E00E94123A81E0809397040F
:1032B00061E083E090E00E94123A60E074E184E013
:1032C00090E00E94303A60E086E090E00E94123A7E
:1032D00060E087E090E00E94123A40E050E0BA01DE
:1032E00088E090E00E94243A60E083E290E00E944F
:1032F000123A60E08CE090E00E94123A60E08DE0CB
:1033000090E00E94123A19821A821B821C821D824E
:103310001E821F82188648E050E067E170E0CE010F
:1033200001960E94023A40E050E0BA018FE190E03D
:103330000E94243A109228071092290710922A0717
:1033400010922B0784E08093280740912807509122
:10335000290760912A0770912B078FE090E00E9467
:10336000243A40E050E0BA0183E190E00E94243A20
:1033700082E090E00E94EE398093A60484E090E021
:103380000E94FC3990933606809335060E9484296A
:103390004FEF53EF81E0415050408040E1F700C0D3
:1033A00000000E9484298091980480FF08C06FEF7C
:1033B0007FEF80E090E00E94303A0E94C72283E0D5
:1033C00090E00E94EE390E947836809127070E9493
:1033D00003120E94F51E1092C806E1EEF6E08FEF90
:1033E0009FEF81939193A6E0E13FFA07D1F7109206
:1033F000FA06E3E1F7E08FEF9FEF81939193B7E057
:10340000E332FB07D1F781E08093F10648E050E01A
:1034100067E170E082EF96E00E94DE391092F106DB
:103420008091F2068C7FF9F485E38093F206809117
:10343000B9019091BA01A091BB018093F3069093DA
:10344000F406A093F5068FE78093F6068FEF80933E
:10345000F70648E050E067E170E082EF96E00E94F6
:10346000023A1092F10689EA8093800089E0809305
:10347000810024982C983F98479A54985C9A5598C4
:103480005D9A6E98769A569A8FE090E00E94F6398F
:10349000609328077093290780932A0790932B073E
:1034A00067701FEF169FB00111247595679575958C
:1034B00067957727709389006093880070938B00DD
:1034C00060938A0070938D0060938C005E980E94D8
:1034D000F6110E94F2110E94EE118FEF90E090938E
:1034E00089008093880090938B0080938A0090934A
:1034F0008D0080938C000E940012EFEFF0E722E035
:10350000E150F0402040E1F700C000000E94FD11B2
:103510003FEF40E752E0315040405040E1F700C0FB
:1035200000000E94FA118FEF90E7A2E081509040D6
:10353000A040E1F700C000000E94F611BFEFE0E7F5
:10354000F2E0B150E040F040E1F700C000000E941E
:10355000F2112FEF30E742E0215030404040E1F7D8
:1035600000C000000E94EE11809128078770189F0C
:10357000C0011124959587959595879599279093E6
:1035800089008093880090938B0080938A009093A9
:103590008D0080938C005E980E94F6110E94F211BB
:1035A0000E94EE118091F206883B18F080E00E94A4
:1035B0000F2A8091F206837011F41092B401809169
:1035C000F2068C7F81608093F2068091F106816023
:1035D0008093F10684E091E0909332068093310667
:1035E0008091BA06853009F074C030E4E32E06EA13
:1035F00014E0DD24D39443E0C42E50E1F52E8091F5
:10360000BA06853009F05FC08091BA06843009F4AB
:1036100038C00E94883480912C0781110DC00E940F
:10362000E9041092B8018091F20683708093B7018B
:103630000E94461EC092B401D0922C071092370609
:1036400088E190E00FB6F894A895809360000FBED3
:10365000E092600083B7817F846083BF83B781601D
:1036600083BF7894889583B78E7F83BF0FB6F89415
:10367000A89580916000886180936000109260003E
:103680000FBE8091B906882309F4B9CF0E94401378
:1036900090E090930F0180930E010E94B5120E945A
:1036A0001B13E8E9F4E011920E171F07E1F70E94DF
:1036B0008429E8E9F4E081918111CDC294E0E63AF1
:1036C000F907C9F79CCF0E949E360E941E241092D3
:1036D0002C070E948429A7EAB4E02A96BFAFAEAFB8
:1036E0002A9725EB34E0A8E9B4E0E7EAF4E0919109
:1036F0008D9189272E173F0719F08823C1F305C044
:10370000811103C00E9460299EC12DE1222E24E078
:10371000322EE4E3F2E02C96FFAFEEAF2C9728E9CF
:1037200034E060963FAF2EAF6097D12C6096AEAD7F
:10373000BFAD60977D906096BFAFAEAF60972A96A1
:10374000EEADFFAD2A97A080A7242E96AFAE2E97A0
:10375000AA2009F45BC151012C964EAC5FAC2C97AA
:10376000C12C662463942E968FAD2E97862109F482
:103770003DC1862C87202296CFAE22972396DFAEBE
:1037800023970E943A2325969FAF8EAF259781E01D
:1037900026968FAF269791E0811001C090E0279682
:1037A0009FAF279722964FAD229723965FAD239721
:1037B00024966FAD249725967FAD259726968FADDD
:1037C00026970E94CE10882051F0D2018C918F3F15
:1037D00031F02D968FAF2D979924939401C0912CA1
:1037E000092D10E08091FA06F801E80FF11D3997D4
:1037F000ACF188E090E07C01E01AF10AB8016F5F5B
:103800007F4F6650794FA7018BEF96E00E945C3C9A
:10381000B801675F7F4F6650794FA70183E097E05B
:103820000E945C3CA701440F551FB801660F771F2B
:10383000675E7F4F6650794F83E197E00E945C3C62
:10384000B8016F5E7F4F6650794FA7018BE097E01C
:103850000E945C3C88E089198093FA068091FA0600
:1038600090E02D96FFAD2D97AF2FB0E09D01220F78
:10387000331F28573D4FAA0FBB1FBD0167577D4F10
:1038800041E0480F9915C0F490E0FC01E650F94F73
:10389000D9015C915183DB015C9151872D96BFADBD
:1038A0002D97B18B880F991FFC01E650F94F128EAE
:1038B000118E91E0842FE4CF8093FA06882009F4DA
:1038C00095C08091F2068C7F8C3709F08FC0F20191
:1038D00080818F3F09F48AC074E3872E72E0972EAF
:1038E000EDE1EE2EE4E0FE2E28961FAE289790E044
:1038F0009C01220F331FA90148575D4F62965FAFAD
:103900004EAF6297D901A757BD4F6496BFAFAEAF18
:10391000649700E010E0F401E00FF11F80818F3F19
:1039200009F44EC02896BFAD2897DB120AC0C0121A
:1039300008C0F501208130E2230F08F42FEF208327
:103940003FC090E06296EEADFFAD6297408150E0DF
:10395000FC01EE0FFF1FE857FD4F2081421B51096C
:103960006496AEADBFAD64972C9130E0880F991F7F
:10397000FC01E757FD4F8081281B3109449FB001AE
:10398000459F700D700D1124229FC001239F900D43
:10399000900D1124860F971F0E948A32893280F47D
:1039A00028E2382F231B08F420E0F701E00FF11F75
:1039B000213108F020E13081320F08F43FEF3083ED
:1039C0000F5F1F4F0630110509F0A5CF28964FADA8
:1039D00028974F5F28964FAF289756E0E50EF11CC9
:1039E00086E0880E911C4E3009F093CFC394660C8C
:1039F0009FEF491A590AAFEFAA1ABA0AB6E0CB12DA
:103A0000B2CE2A96EEADFFAD2A977082D3942A9655
:103A10002EAD3FAD2A972F5F3F4F2A963FAF2EAF77
:103A20002A972C964EAD5FAD2C974A5F5F4F2C9630
:103A30005FAF4EAF2C9756E0250E311C8EE0D812AA
:103A400075CE0E942E2380912D0690912E06892BF3
:103A5000E9F08091B5049091B6040E941F23893C3F
:103A60009105A0F080912D0690912E06992724E0D3
:103A7000880F991F2A95E1F7FC01EB5EFE4F20812C
:103A800022FD04C0805F9E4F0E944A240E94883419
:103A90000E941E249091B704891721F08093B704E7
:103AA0000E942E238091BA06843009F099CD83E0DC
:103AB0008093E9008091E80082FF92CD8091E80038
:103AC00085FF22C00E943E2081111CC000E210E050
:103AD0007E0191E2E90EF11C08C08091F100D7014E
:103AE0008D937D010150110969F08091E80085FDF9
:103AF000F4CF8091E8008B778093E8000E943E200D
:103B0000882399F391E001C090E08091E8008B77E1
:103B10008093E800992309F463CD89A1863009F4E4
:103B200079C0B0F4823009F45BCD60F4882329F1C8
:103B3000813009F08CC08093B80484E089838EEFD3
:103B40008A837CC0843031F1853009F463C07FC042
:103B5000893009F45FC030F4873099F1883009F476
:103B600059C075C08A3009F457C08E3F09F06FC044
:103B7000898394E09A838B8361C019828CE0EEED97
:103B8000F1E0DE01129601900D928A95E1F78EEF39
:103B90008D8754C08091B804882309F421CD8AA16F
:103BA000811104C08BA10E945F361ACD81E090E0A4
:103BB0000BA002C0880F991F0A94E2F70E945A36A0
:103BC0000FCD81E08093BA048AA18230C1F000F564
:103BD000882319F0813051F01BC08BA1882319F084
:103BE0000E940012FDCC0E94F611FACC8BA1882312
:103BF00019F00E94FD11F4CC0E94F211F1CC8BA1BE
:103C0000882319F00E94FA11EBCC0E94EE11E8CC47
:103C100085E01EC084E01CC08AA111E0811101C0B2
:103C200010E01093BA04811106C00E94F6110E94A0
:103C3000F2110E94EE118BE089831A8340E250E07A
:103C4000BE016F5F7F4F82E00E945522C9CC8FEF8B
:103C50000E945412C5CCF9BC82E189BD09B400FEB2
:103C6000FDCF8091D8008F7D8093D8008091E000B7
:103C700082608093E0008091E00081FDFCCF0E9493
:103C80009E36BDCC08958091AF060895A0E0B0E0C7
:103C9000ECE4FEE10C944A3983E7C82E85E0D82E87
:103CA0009AEEA92E91E0B92EE12CF12CF60180813B
:103CB0008823C1F0C0E0D0E0A7014C0F5D1F4D513B
:103CC0005B4F6C2F6C5DF501808103E010E020E11B
:103CD00030E0880F0E9447386096C039D10561F7FF
:103CE000F6011082F4EACF0ED11C84EAE80EF11C32
:103CF000EFEFAE1ABE0AF8E4EF16F1E0FF06B1F6F8
:103D0000CDB7DEB7EAE00C946639A4E0B0E0EBE8AA
:103D1000FEE10C944F398033910508F049C0122F11
:103D2000042FF62EBC01660F771F660F771F6C56A7
:103D30007C4F44E050E0CE0101960E94D539898144
:103D400083702A8130E0682F70E044EA849FC001CC
:103D500011248D519B4FFC01E20FF31FE0815B8129
:103D60004C81EF110CC0FC01E50FF11DE081E01367
:103D700006C0FC01E40FF11D80818117C9F0E4EA5F
:103D8000E69FC001E79F900D11248D519B4FFC01D0
:103D9000E20FF31FF082FC01E50FF11D0083FC012F
:103DA000E40FF11D1083FC01E057FF4F21E0208359
:103DB0002496E5E00C946B39FF920F931F93CF93F9
:103DC000DF93182F062FF42EC0E0D0E02F2D402FC8
:103DD000612FCE010E94851E2196C033D105B1F717
:103DE000CDB7DEB7E5E00C946B39A4E0B0E0EBEFC3
:103DF000FEE10C944A390E94CA3710E04BE06DEFA7
:103E0000812F0E94053440E06AE0812F0E94053432
:103E10008FE39CE90197F1F700C0000040E060E00B
:103E2000812F0E94053440E061E0812F0E9405341B
:103E300040E066E0812F0E94053440E06DEF812F65
:103E40000E94053400E040E0602F812F0E9405347D
:103E50000F5F0231C1F740E0602F812F0E940534CF
:103E60000F5F0432C1F740E0602F812F0E940534BC
:103E70000F5F043BC1F74BE06DEF812F0E940534CB
:103E800041E06AE0812F0E94053440E06DEF812F10
:103E90000E9405341F5F123009F0B0CF04E913E02F
:103EA00094E5C92E94E0D92E24EAA22EEE24E394C0
:103EB000F12CBB24B39444E050E0B801CE0101964C
:103EC0000E94D5394A813B812C8189818370542F8E
:103ED000569556955695A89EC00111248D519B4F1D
:103EE000FC01E50FF11DEF56FF4F4770B70102C00F
:103EF000660F771F4A95E2F7AB015081452B40834F
:103F0000432F469546954695FC01E40FF11DEF566B
:103F1000FF4F3770A70101C0440F3A95EAF730818F
:103F2000432B4083322F369536953695FC01E30FAF
:103F3000F11DEF56FF4F2770A70102C0440F551F18
:103F40002A95E2F79A013081232B2083FC01ED555D
:103F5000FF4FB0820C5F1F4FC016D10609F0ABCFE8
:103F600083EEC82E84E0D82EF12C560153EAA50E1C
:103F7000B11CF5018081882399F000E010E0F80180
:103F8000EF56FF4FEC0DFD1D4081602F8F2D0E94DD
:103F900005340F5F1F4F0231110589F7F5011082BB
:103FA000F394F4EACF0ED11C42E0F412DECF249653
:103FB000EAE00C9466391F920F920FB60F9211240B
:103FC0002F933F934F935F936F937F938F939F9321
:103FD000AF93BF93CF93DF93EF93FF93C091E9002B
:103FE000CF708091EC00D82FD17080FDD0E8109276
:103FF000E9008091F000877F8093F00078940E9420
:10400000862C1092E9008091F00088608093F00087
:10401000CD2BCF70C093E900FF91EF91DF91CF914D
:10402000BF91AF919F918F917F916F915F914F91D0
:104030003F912F910F900FBE0F901F901895E8EDB4
:10404000F0E080818E7F80831092E2001092DA008F
:104050001092E100A0EEB0E08C9181608C938081A1
:104060008F77808319BCA7EDB0E08C918E7F8C9305
:1040700080818F7E808310923C0608952091E40019
:104080003091E50095E64091EC00842F817040FF6F
:1040900023C08091E80080FD1DC08091BA0688236E
:1040A00099F0853099F08091EB0085FD11C0409129
:1040B000E4005091E5002417350729F3915011F0E1
:1040C0009A01E1CF84E0089582E0089583E00895A5
:1040D00081E0089580E008954091E80042FFDDCF3F
:1040E00008958091BC0687FF11C08091E80082FD91
:1040F00005C08091BA068111F8CF11C08091E80007
:104100008B770BC08091BA06882349F08091E80034
:1041100080FFF8CF8091E8008E778093E8000895C3
:10412000982F973068F59093E900981739F07091BF
:10413000EC002091ED005091F00003C0242F762F69
:1041400050E021FD02C09F5FECCF3091EB003E7F3D
:104150003093EB003091ED003D7F3093ED003091D6
:10416000EB0031603093EB007093EC002093ED0096
:104170005093F0002091EE0027FDE5CF80E00895F8
:104180008F708093E90081E00895A0E0B0E0EBEC4F
:10419000F0E20C944C39C8EDD0E088818F7E8883A2
:1041A000E7EDF0E080818160808384E082BF81E080
:1041B00080933C0688818E7F888302EE10E0F801B0
:1041C00010821092DA0081EEC82ED12CF6011082F6
:1041D00088818F77888388818068888388818F7DB4
:1041E000888319BC1092BA061092BB061092B906C9
:1041F0001092B80690EEE92EF12CF70180818B7FAA
:10420000808388818160888342E060E080E00E9452
:104210009020F60180818E7F8083F801808181600B
:104220008083808188608083F70180818E7F808396
:10423000888180618883CDB7DEB7E8E00C94683967
:104240001F920F920FB60F9211242F933F934F930B
:104250005F936F937F938F939F93AF93BF93EF93EE
:10426000FF938091E10082FF09C08091E20082FF0C
:1042700005C08091E1008B7F8093E1008091DA009E
:1042800080FF2AC08091D80080FF26C08091DA008C
:104290008E7F8093DA008091D90080FF18C080E182
:1042A00089BD82E189BD09B400FEFDCF81E0809324
:1042B000BA0680913C0681110FC00E941F200E9407
:1042C000C5208091E20084608093E20005C019BCA3
:1042D0001092BA0610923C068091E10080FF17C050
:1042E0008091E20080FF13C08091E2008E7F809376
:1042F000E2008091E20080618093E2008091D8002A
:1043000080628093D80019BC85E08093BA068091C2
:10431000E10084FF30C08091E20084FF2CC080E186
:1043200089BD82E189BD09B400FEFDCF8091D8002E
:104330008F7D8093D8008091E1008F7E8093E10093
:104340008091E2008F7E8093E2008091E2008160A4
:104350008093E2008091BB06882311F084E007C0BF
:104360008091E30087FD02C081E001C083E080937B
:10437000BA068091BA068091E10083FF27C0809140
:10438000E20083FF23C08091E100877F8093E100FA
:1043900082E08093BA061092BB068091E1008E7F86
:1043A0008093E1008091E2008E7F8093E200809113
:1043B000E20080618093E20042E060E080E00E94E1
:1043C00090208091F00088608093F000FF91EF9141
:1043D000BF91AF919F918F917F916F915F914F911D
:1043E0003F912F910F900FBE0F901F901895209125
:1043F000C2063091C3062617370748F061157105CC
:1044000039F42091E8002E772093E80001C0B9012B
:10441000FC0120E06115710579F18091BA068823CD
:10442000F1F18530F1F18091E80083FD3CC080918D
:10443000E80082FD2EC08091E80080FFEBCF209144
:10444000F3008091F20090E0922B6115710551F01C
:104450008830910538F421912093F1006150710961
:104460000196F3CF21E0089709F020E08091E80061
:104470008E778093E800CECF2111CFCF0AC08091F4
:10448000BA06882361F0853061F08091E80083FDF1
:104490000AC08091E80082FFF2CF80E0089582E0B8
:1044A000089583E0089581E008950F931F93CF93BB
:1044B000DF938B01EA019091BA069430A9F58F70D1
:1044C0008093E9008FEF9091E800815095FD06C040
:1044D00095ED9A95F1F700008111F5CF8091E800F4
:1044E00085FF22C00E943E20811115C0209789F0CF
:1044F0008091E80085FD06C08091E8008E7780936A
:10450000E800F0CFF80181918F018093F1002197AD
:10451000EDCF90E001C0982F8091E8008E778093D6
:10452000E80081E0911101C080E0DF91CF911F91FF
:104530000F91089543E050E0BC0184E00E945522B1
:10454000089540E250E0BC0184E00E9455220895A5
:10455000CF93DF93EC0148E050E0BC0181E00E9482
:10456000552288E0FE01A0EBB6E001900D928A95FD
:10457000E1F7DF91CF9108959AE088E10FB6F894C2
:10458000A895809360000FBE90936000FFCFF894D1
:1045900081E08093E00080E28093D800E9ECF0E0D5
:1045A00010828FE19EE40197F1F700C000001DBA70
:1045B000109268001CBC10BE1FBA10927A001092B4
:1045C0006E0010926F0010927100109272001082B3
:1045D000ECEBF0E0108214B817B81AB81DB810BA96
:1045E000108215B818B81BB81EB811BA0C94003F49
:1045F000089578941F920F920FB60F9211248F9303
:104600009F93AF93BF938091380690913906A09104
:104610003A06B0913B060196A11DB11D8093380664
:1046200090933906A0933A06B0933B06BF91AF91A1
:104630009F918F910F900FBE0F901F9018959C0126
:104640004FB7F8948091380690913906A0913A06B8
:10465000B0913B064FBF821B930B08952FB7F89480
:10466000609138067091390680913A0690913B0628
:104670002FBF08952FB7F89480913806909139068E
:10468000A0913A06B0913B062FBF08951F920F925A
:104690000FB60F9211248F939F93AF93BF93809186
:1046A0003706811113C08091380690913906A09188
:1046B0003A06B0913B064196A11DB11D8093380684
:1046C00090933906A0933A06B0933B06BF91AF9101
:1046D0009F918F910F900FBE0F901F901895909102
:1046E000B001992321F09091350697FD03C0EBEBC3
:1046F000F4E01DC0E82FE695E695E695EE31E0F48E
:10470000F0E0ED53FB4F877021E030E0A90102C0DB
:10471000440F551F8A95E2F7CA018095928189233B
:1047200082830895319654E0E13CF50729F09281A7
:104730008913F8CF1282F6CF08959091B001992392
:10474000D1F09091350697FF16C0E82FE695E695D3
:10475000E695EE3140F5F0E0ED53FB4F877021E038
:1047600030E0A90102C0440F551F8A95E2F7CA0143
:104770009281892B16C0ADEBB4E0EFEF90E02D9164
:10478000821789F0EF3F19F4211101C0E92F9F5FD3
:104790009630A9F7EF3F39F00E2E000CFF0BE554D1
:1047A000FB4F828308950895A3E0B0E0EAEDF3E2C1
:1047B0000C9452392091330630913406281739076A
:1047C000A1F09093340680933306E0913106F09186
:1047D0003206309751F024E029839B838A8300843A
:1047E000F185E02DCE01019609952396E2E00C9427
:1047F0006E39A3E0B0E0EFEFF3E20C945239209170
:104800002F063091300628173907A1F09093300613
:1048100080932F06E0913106F0913206309751F0E7
:1048200023E029839B838A830084F185E02DCE01D8
:10483000019609952396E2E00C946E39E0913106D9
:10484000F0913206309729F00190F081E02D099522
:10485000089580E008954115510511F0FA01099578
:104860000895CF93DF93EC014A855B856E857F8544
:104870000E942B248B810E94E8268C810E94EF26C7
:104880000E94F62686E0FE0111928A95E9F7DF91F3
:10489000CF910895CF93DF93EC018D8181FD17C0F7
:1048A00082608D8390912B068B81892B80932B06C0
:1048B00090912C068C81892B80932C060E94F626E1
:1048C000488559856E857F85CE010E942B241092E4
:1048D0002E0610922D068D8180FD03C0CE010E9410
:1048E0003124DF91CF910895882311F0FA0101C09E
:1048F000FB010995089580E008959091350692FF97
:1049000010C041E0282F2471243009F040E031E04C
:10491000282F2871283009F030E0431711F02CE0DF
:10492000822793FF10C041E0282F2471243109F021
:1049300040E031E0282F2871283109F030E043179A
:1049400011F02CE082273091360630FF10C051E084
:10495000282F2171213009F050E041E0282F2871E3
:10496000283009F040E0541711F029E0822731FF88
:1049700010C041E0282F2171213109F040E031E0E1
:10498000282F2871283109F030E0431711F029E071
:10499000822794FD877E08958238910569F1B0F4ED
:1049A0008133910509F475C048F48932910509F401
:1049B00067C08A32910509F471C008958533910565
:1049C00009F459C089339105B9F00895833E9105E2
:1049D00089F138F4803E9105D1F0823E910529F1AC
:1049E0000895863E9105C9F1873E9105D9F1843E2F
:1049F000910509F06CC027C02091350620FD57C0F5
:104A000021FD55C02091360623FD5BC0089580919D
:104A1000350680FD48C08091360680FF48C08091F1
:104A2000350684FD46C083EE51C08091350682FF75
:104A30003CC0F5CF8091350682FD37C080913606A7
:104A400080FD35C0ECCF8091360681FF36C0809165
:104A5000350684FD2EC087EE39C08091350683FF70
:104A60002AC0F5CF8091350683FD25C0809136069A
:104A700081FD23C0ECCF8091350685FD22C01FC08B
:104A80008091350685FD1BC08091360683FF19C0D5
:104A90000AC08091350686FD16C017C08091350684
:104AA00086FD13C010C089E311C082EE0FC080EEF6
:104AB0000DC080E00BC086EE09C084EE07C085E320
:104AC00005C089E203C08AE201C081E390E0089555
:104AD00090912C0680912B06892B90917F0699232B
:104AE000E1F0892B9091B001992341F09091350626
:104AF00097FF04C09EE125EC34E003C096E02DEB67
:104B000034E0F90120E0915028F031913323D9F3BA
:104B10002F5FF9CF211110927F06089520917D0615
:104B20009091440657E02917A9F030E0529FF00118
:104B3000539FF00D1124EB5BF94F7181761306C082
:104B40007081781303C07581741306C02F5F3F4FC7
:104B50002770E9CF80E0089581E008957E30B0F4B9
:104B60006630A0F48430A0F494E5899FF00111240C
:104B700086E0789FE00DF11D1124E60FF11DEE0F88
:104B8000FF1FEC5AFB4F85919491089580E001C07E
:104B900081E090E008951F93CF93DF930E94CC248F
:104BA000EC01C11580E5D807E8F5C11590E4D907F7
:104BB00008F0A8C0C03ED10530F5CD3CD10508F0C5
:104BC00094C0C83AD10578F4C53AD10508F083C03D
:104BD000C130D10509F47CC008F4F2C0C430D1055D
:104BE00008F0F1C0EDC0C33CD10508F0E9C0C85AD7
:104BF000D0E0CC0FDD1FC151DE4F0990D881C02D10
:104C0000CE019464E1C0C11580E2D80708F0CBC0A2
:104C1000C11591E0D90708F06BC0C83ED10508F472
:104C2000D2C0CEC0C03682E5D80728F5C03492E5A0
:104C3000D90708F079C0C03282E5D80708F06CC007
:104C4000C11592E5D90708F481C04C2F46954695C9
:104C500080E2489FA0011124C37021E030E0C90127
:104C600002C0880F991FCA95E2F7EA01C82BD92B19
:104C7000CE019D68A9C0C03A82E5D807B8F48C2F50
:104C80008F71C03892E5D90708F07BC0869586956C
:104C900090E2899F90011124C37081E090E002C0EE
:104CA000880F991FCA95E2F79A6868C0C03C82E5F0
:104CB000D80708F46DC0C03E92E5D90708F080C05F
:104CC000CF71DD27DC2FCC27CE01806F906A7CC0AE
:104CD00081E090E079C0C55AD0E0C451DE4F8881B0
:104CE000C82FD0E0CE0190646FC0CE0190656CC03B
:104CF0008D2F0E947D24182FCE0199270E94CC244D
:104D00001F715CC0CE0199270E94CC24CC27DF7094
:104D1000D06A8C2B9D2B58C0CF71D0E0DC2FCC27D4
:104D2000CE01816F906A50C08C2F8F7186958695C9
:104D300090E2899F90011124C37081E090E002C04D
:104D4000880F991FCA95E2F79C6818C08C2F8F7145
:104D50000E947D2495E0D695C7959A95E1F7CF708E
:104D6000D0E0DC2FCC27282F30E084FF05C084E082
:104D7000220F331F8A95E1F7D069CE01822B932B46
:104D800023C090E0D82FCC27CE01846F906A1CC03E
:104D90008C2F8F710E947D248F7190E0D82FCC27AB
:104DA000CE01906211C08D2F8F710E947D24182F2B
:104DB000CE0199270E94CC241F719062912B04C0D0
:104DC00080E090E001C0CE01DF91CF911F91089566
:104DD000809590912B06892380932B0608958095CA
:104DE00090912C06892380932C0608958091B00120
:104DF000882351F18091350687FF26C00E946825DF
:104E00008093C40440E250E060E876E083EC94E0F4
:104E10000E944F3C892BD9F180E2E3ECF4E0A0E85A
:104E2000B6E001900D928A95E1F7E0913106F0919C
:104E30003206309761F186E08093C3040480F581E7
:104E4000E02D83EC94E022C00E9468258093BB048F
:104E500048E050E060EA76E08BEB94E00E944F3C43
:104E6000892BA9F088E0EBEBF4E0A0EAB6E0019032
:104E70000D928A95E1F7E0913106F0913206309774
:104E800031F00280F381E02D8BEB94E009950895D9
:104E900090917E068095892380937E06282F277027
:104EA00069F4981759F09091360692FF07C08695DD
:104EB000869586950E945F3610927E0608959091A1
:104EC000360692FB222720F9281779F080FB92F909
:104ED00090933606609135067091360684E090E036
:104EE0000E94303A82E00E944827089580917D0612
:104EF00090914406891719F08F5F8770FBCF089552
:104F0000CF93DF938091430682958F7009F04EC056
:104F100080914206882309F449C080917D06409122
:104F2000440650913E0660913D06C0913F06D091E7
:104F3000400677E08417D1F190E0789FF001799FE7
:104F4000F00D1124DF01AB5BB94F14962C9114972F
:104F5000222349F111962C911197251324C02C91ED
:104F6000261321C015962C91159721111CC012965D
:104F70002D913C9113972C1B3D0B283C310598F447
:104F8000809143068F70806180934306E55BF94F03
:104F900080818F70806180838DE396E00E9485130D
:104FA0000E94762703C001968770C4CFDF91CF910E
:104FB0000895A4E1B0E0EFEDF7E20C9448398C01DC
:104FC00086E0F801DE011F9601900D928A95E1F7C7
:104FD000F8018481E5809DE3892E96E0992E9091D9
:104FE0004106911120C0882309F463C1EE2009F421
:104FF00042C0C8010E947B36F82E8823E1F187E089
:10500000F801D40101900D928A95E1F78091410653
:10501000813031F480913D0690913E060E94E43546
:105020000E94802748C1F801D080C180A280B3804F
:10503000F090420620913F0630914006FF2009F48F
:10504000E7C0A501421B530B483C510508F09DC029
:10505000882309F430C180914306282F207F909146
:105060003E06222361F09C1509F460C0C8010E942D
:105070007B36811163C0C8010E9485131AC19C113F
:1050800013C090913D069D110FC0E1100DC08F70AF
:105090008061809343068DE396E00E9485138091A2
:1050A0004306F801868303C1E1103AC040E06C2D4D
:1050B0008D2D0E948E2540E06C2D8D2D0E948E2519
:1050C000E82E8111F4C0DF86C88A8F8598890E94F6
:1050D000E435292F22952F70243020F49F70223040
:1050E00028F009C02A50223080F014C0992349F0DA
:1050F000811107C013C0992321F0F8019681907F98
:1051000069F0805E883030F409C0803F38F0815FFC
:10511000833020F0C8010E948513EF2CFE2CCBC0F9
:1051200080914306816080934306C1C090913D0603
:105130009D119CCFE1109ACFF80198C0EE2009F4A0
:105140009ACF20914306822F82958F7090E002972C
:105150008CF080913D0690913E0699878887BB86AA
:10516000AA86809141068C871D862E87CE010896DF
:105170000E94851387E0F801ADE3B6E001900D923F
:105180008A95E1F70E94802794C090914306292FC9
:10519000207F51F48DE396E00E94851387E0F401AF
:1051A00011928A95E9F783C0882309F484C080911D
:1051B0003E068C110CC080913D068D1108C0E11097
:1051C00006C0F8019683C8010E9485136AC0C80111
:1051D0000E947B36882309F44ECFEE2009F44BCF92
:1051E00020914306822F82958F7090E0029714F2EF
:1051F00080913D0690913E069A838983BC82AB8262
:10520000809141068D831E822F83CE010196B0CFFF
:10521000A21AB30AF8ECAF16B10408F042C0882312
:1052200009F447C0FE2CEE2009F425CF80913E06FC
:105230008C1129C080913D068D1125C090914306A7
:1052400090FD18C0892F82958F70282F30E021158E
:10525000310581F0F80196832F30310541F08F5FE1
:10526000982F9295907F86818F70892B8683C801B5
:105270000E94851387E0F801ADE3B6E001900D923E
:105280008A95E1F718C0C8010E947B36811172CF60
:1052900080914306816080934306C8010E94851374
:1052A0000AC087E0F40111928A95E9F704C0F12C55
:1052B00002C0FF24F3948F2D6496ECE00C946439C3
:1052C000A6E0B0E0E6E6F9E20C9450390E943A23F9
:1052D0008C018091A8069091A9060817190781F002
:1052E00019821A820E943A23682F49815A81792FA4
:1052F00080E090E00E94CE101093A9060093A806CB
:105300002696E4E00C946C39EF92FF920F931F9372
:10531000CF93DF9380910E0190910F01892BD9F0EB
:105320008091AA068F5F8093AA06811114C00E9403
:10533000401390E090930F0180930E01892B59F454
:105340002FEF83EC99E0215080409040E1F700C0BE
:1053500000000E94BC2209E814E0C0E0D0E087E031
:10536000E82EED0E8D2F0E9469128E2D0E9469127B
:105370008D2F0E94CA128F73F8019081891721F036
:105380008083FF24F39401C0F12C8E2D0E94CA1259
:105390008F73F8019781891719F0878381E001C025
:1053A00080E0F82ACF290E94B512DF5F0F5F1F4F00
:1053B000D730A9F6CC2359F081E08093AD060E9446
:1053C0003A239093AC068093AB06C0E022C0809154
:1053D000AD068823F1F08091AB069091AC060E9457
:1053E0001F234497B0F04EE050E069E874E088E98C
:1053F00094E00E944F3C892B51F08EE0E9E8F4E004
:10540000A8E9B4E001900D928A95E1F7C1E010920D
:10541000AD068C2FCDB7DEB7E6E00C946A399091DB
:10542000F2069370A1F0811102C0946007C08E3221
:1054300010F0946B03C0880F880F982B9093F2069E
:105440001092B4018091F10681608093F106089575
:10545000A7E0B0E0EEE2FAE20C944239282E4B01CC
:105460008091B1010E947E34392E8F832091C8062D
:1054700029839F81931508F079C03F81632E712C99
:10548000F301E851FD4F90818091B201892309F425
:1054900069C04090F3065090F406122D1E82C3019D
:1054A000880F991FDC01A857BD4FBB83AA83C30196
:1054B000880F991FFC01E757FD4FFD83EC83F981AD
:1054C0001F1708F03EC0E12EF12CAA81BB81CC90C1
:1054D000D12CF701E853F94F8181C81AD108AC816A
:1054E000BD81AC90B12C8185A81AB108CC9C9001EB
:1054F000CD9C300D300D1124AA9CC001AB9C900DA9
:10550000900D1124820F931F0E948A32082F609100
:10551000F60621E0620F08F46FEFF701EE0FFF1FB0
:10552000E853F94F818D928D0E94E4327C01950100
:10553000A601B2018E81F40109952B018E831F5FB4
:10554000BECF2091F5068E81382F329F312D112448
:10555000832FB2010E940133462F282F672FC301EA
:105560000E942D328F818F5F8F8383CF81E0AFE2E6
:10557000A31508F480E02796E2E10C945E39A0E0E0
:10558000B0E0E5ECFAE20C944C39EC018091B10109
:105590000E947E34092F182F2091F60631E0230F48
:1055A00008F42FEF30E040E050E06FEF7FEF80E055
:1055B00090E00E94363A7901101708F041C0C12EE0
:1055C000D12CF601E851FD4F90818091B2018923E1
:1055D000A9F19091C806915097FD15C0492F092E49
:1055E000000C550BFA01E853F94F81891813F3CFDA
:1055F000440F551FFA01E853F94F218D328D2E15B6
:105600003F0548F701C097016091F60641E0640F3D
:1056100008F46FEFC9010E94E432AC016091F30617
:105620007091F4068091F506FE0109950E94013300
:10563000462F282F672FC6010E942D321F5FBCCF37
:1056400081E0003308F080E0CDB7DEB7E8E00C94ED
:105650006839A0E0B0E0EFE2FBE20C944D398C0138
:105660008091B1010E947E34EC016091F60666954E
:10567000669521E0620F08F46FEF8091C406909167
:10568000C5060E94E432D82ECD17F0F4EC2EF12C92
:10569000F701E851FD4F90818091B201892391F08B
:1056A0006091F3067091F4068091F5062D2D4C2F34
:1056B000F80109950E940133462F282F672FC70153
:1056C0000E942D32CF5FE0CF81E0D03308F080E040
:1056D000CDB7DEB7E7E00C946939A0E0B0E0E3E7CE
:1056E000FBE20C9449396C018091B1010E947E3437
:1056F000192FC82F6091F606669566958091C406AD
:105700009091C5060E94E432D82F80E48D0F0E944C
:10571000303290E8F92EF80E8D2F0E94303220E8BA
:10572000922E980EC11700F5AC2EB12CF501E85160
:10573000FD4F90818091B2018923A1F06091F30621
:105740007091F4068091F506ED2E0C2F292D4F2D2A
:10575000F60109950E940133462F282F672FC501B6
:105760000E942D32CF5FDECF81E0103308F080E061
:10577000CDB7DEB7EBE00C946539A0E0B0E0E3EC28
:10578000FBE20C9447395C018091B1010E947E34A8
:10579000F92E182F6091F60666958091C4069091B7
:1057A000C5060E94E432782E1F1508F043C0812EF2
:1057B000912CF401E851FD4F90818091B201892331
:1057C000B9F1F401EE0FFF1FE857FD4FC081D0E0A3
:1057D000C057D109F401EE0FFF1FE757FD4FC080FE
:1057E000D12C80E2C81AD108CC9F9001CD9F300DFA
:1057F000300D1124CC9CC001CD9C900D900D112436
:10580000820F931F0E948A32082F6091F3067091D5
:10581000F4068091F506E72C9601AE01F501099595
:105820000E940133462F282F672FC4010E942D327A
:105830001F5FBACF81E0FFE2FF1508F480E0CDB72B
:10584000DEB7EDE00C946339A0E0B0E0EAE2FCE200
:105850000C944C397C018091B1010E947E34D92E88
:10586000182F6091F60666958091C4069091C50642
:105870000E94E432C82E1D1578F5C12FD0E0FE013C
:10588000E851FD4F90818091B201892319F1FE0109
:10589000EE0FFF1FE757FD4F208130E02052310906
:1058A000FE01EE0FFF1FE857FD4F408150E04057CB
:1058B00051096091F3067091F4068091F5060C2D64
:1058C000F70109950E940133462F282F672FCE013B
:1058D0000E942D321F5FCFCF81E0FFE2FD1508F45B
:1058E00080E0CDB7DEB7E8E00C9468399091F2061D
:1058F000937059F08093F3066093F4064093F50695
:105900008091F10681608093F1060895AAE2B0E0EB
:10591000ECE8FCE20C945139ECEBF6E084EC96E018
:105920002091F10021938E179F07D1F78091BD063A
:10593000833009F463C030F4813071F0823009F4AF
:105940009DC0B4C08A3009F489C08B3009F46EC0A0
:10595000893009F0ABC020C08091BC06813A09F0C3
:10596000A5C08091E800877F8093E8008091C00601
:105970009091C106892B21F468E080EB96E003C08A
:1059800060E080E090E070E00E94F7218091E80004
:105990008B778093E8008AC08091BC06813209F041
:1059A00085C08091C0069091C106009719F00297BA
:1059B00009F07CC08091E800877F8093E8008091A7
:1059C000E80082FD05C08091BA068111F8CF6EC053
:1059D0002091F3008091F20090E0922B029731F435
:1059E0008091F100813011F0863021F48091F10036
:1059F0008093AF068091E8008B7754C08091BC06FD
:105A0000813A09F053C08091C0069091C106892B5C
:105A100009F04CC08091E800877F8093E800809176
:105A2000E80080FFFCCF8091B00137C08091BC06B8
:105A30008132E1F58091C0069091C106892BB1F5C4
:105A40008091E800877F8093E8000E947120809118
:105A5000BE068093B0010E949E3628C08091BC068D
:105A6000813221F58091E800877F8093E8000E94D1
:105A700071208091BF068093AE0618C08091BC064D
:105A8000813AA1F48091E800877F8093E8008091BB
:105A9000E80080FFFCCF8091AE068093F1008091FA
:105AA000E8008E778093E8000E9471208091E800E2
:105AB00083FFEBC18091BC069091BD06492F50E059
:105AC0004A30510508F0E1C1FA01E056FF4F0C944D
:105AD000493C803821F0823809F0D7C108C0809154
